{"abi":[{"type":"constructor","inputs":[],"stateMutability":"nonpayable"},{"type":"function","name":"approve","inputs":[{"name":"to","type":"address","internalType":"address"},{"name":"tokenId","type":"uint256","internalType":"uint256"}],"outputs":[],"stateMutability":"nonpayable"},{"type":"function","name":"balanceOf","inputs":[{"name":"owner","type":"address","internalType":"address"}],"outputs":[{"name":"","type":"uint256","internalType":"uint256"}],"stateMutability":"view"},{"type":"function","name":"getApproved","inputs":[{"name":"tokenId","type":"uint256","internalType":"uint256"}],"outputs":[{"name":"","type":"address","internalType":"address"}],"stateMutability":"view"},{"type":"function","name":"getTicketDetails","inputs":[{"name":"ticketId","type":"uint256","internalType":"uint256"}],"outputs":[{"name":"tier","type":"uint8","internalType":"enum MusicOfTheSpheres.TicketTier"},{"name":"eventDate","type":"uint256","internalType":"uint256"}],"stateMutability":"view"},{"type":"function","name":"getTierMintCount","inputs":[{"name":"owner","type":"address","internalType":"address"},{"name":"tier","type":"uint8","internalType":"enum MusicOfTheSpheres.TicketTier"}],"outputs":[{"name":"","type":"uint256","internalType":"uint256"}],"stateMutability":"view"},{"type":"function","name":"isApprovedForAll","inputs":[{"name":"owner","type":"address","internalType":"address"},{"name":"operator","type":"address","internalType":"address"}],"outputs":[{"name":"","type":"bool","internalType":"bool"}],"stateMutability":"view"},{"type":"function","name":"mintTicket","inputs":[{"name":"to","type":"address","internalType":"address"},{"name":"tier","type":"uint8","internalType":"enum MusicOfTheSpheres.TicketTier"}],"outputs":[],"stateMutability":"nonpayable"},{"type":"function","name":"name","inputs":[],"outputs":[{"name":"","type":"string","internalType":"string"}],"stateMutability":"view"},{"type":"function","name":"owner","inputs":[],"outputs":[{"name":"","type":"address","internalType":"address"}],"stateMutability":"view"},{"type":"function","name":"ownerOf","inputs":[{"name":"tokenId","type":"uint256","internalType":"uint256"}],"outputs":[{"name":"","type":"address","internalType":"address"}],"stateMutability":"view"},{"type":"function","name":"renounceOwnership","inputs":[],"outputs":[],"stateMutability":"nonpayable"},{"type":"function","name":"safeTransferFrom","inputs":[{"name":"from","type":"address","internalType":"address"},{"name":"to","type":"address","internalType":"address"},{"name":"tokenId","type":"uint256","internalType":"uint256"}],"outputs":[],"stateMutability":"nonpayable"},{"type":"function","name":"safeTransferFrom","inputs":[{"name":"from","type":"address","internalType":"address"},{"name":"to","type":"address","internalType":"address"},{"name":"tokenId","type":"uint256","internalType":"uint256"},{"name":"data","type":"bytes","internalType":"bytes"}],"outputs":[],"stateMutability":"nonpayable"},{"type":"function","name":"setApprovalForAll","inputs":[{"name":"operator","type":"address","internalType":"address"},{"name":"approved","type":"bool","internalType":"bool"}],"outputs":[],"stateMutability":"nonpayable"},{"type":"function","name":"supportsInterface","inputs":[{"name":"interfaceId","type":"bytes4","internalType":"bytes4"}],"outputs":[{"name":"","type":"bool","internalType":"bool"}],"stateMutability":"view"},{"type":"function","name":"symbol","inputs":[],"outputs":[{"name":"","type":"string","internalType":"string"}],"stateMutability":"view"},{"type":"function","name":"ticketTierMintCount","inputs":[{"name":"","type":"address","internalType":"address"},{"name":"","type":"uint8","internalType":"enum MusicOfTheSpheres.TicketTier"}],"outputs":[{"name":"","type":"uint256","internalType":"uint256"}],"stateMutability":"view"},{"type":"function","name":"tickets","inputs":[{"name":"","type":"uint256","internalType":"uint256"}],"outputs":[{"name":"tier","type":"uint8","internalType":"enum MusicOfTheSpheres.TicketTier"},{"name":"eventDate","type":"uint256","internalType":"uint256"}],"stateMutability":"view"},{"type":"function","name":"tokenURI","inputs":[{"name":"tokenId","type":"uint256","internalType":"uint256"}],"outputs":[{"name":"","type":"string","internalType":"string"}],"stateMutability":"view"},{"type":"function","name":"transferFrom","inputs":[{"name":"from","type":"address","internalType":"address"},{"name":"to","type":"address","internalType":"address"},{"name":"tokenId","type":"uint256","internalType":"uint256"}],"outputs":[],"stateMutability":"nonpayable"},{"type":"function","name":"transferOwnership","inputs":[{"name":"newOwner","type":"address","internalType":"address"}],"outputs":[],"stateMutability":"nonpayable"},{"type":"event","name":"Approval","inputs":[{"name":"owner","type":"address","indexed":true,"internalType":"address"},{"name":"approved","type":"address","indexed":true,"internalType":"address"},{"name":"tokenId","type":"uint256","indexed":true,"internalType":"uint256"}],"anonymous":false},{"type":"event","name":"ApprovalForAll","inputs":[{"name":"owner","type":"address","indexed":true,"internalType":"address"},{"name":"operator","type":"address","indexed":true,"internalType":"address"},{"name":"approved","type":"bool","indexed":false,"internalType":"bool"}],"anonymous":false},{"type":"event","name":"OwnershipTransferred","inputs":[{"name":"previousOwner","type":"address","indexed":true,"internalType":"address"},{"name":"newOwner","type":"address","indexed":true,"internalType":"address"}],"anonymous":false},{"type":"event","name":"TicketMinted","inputs":[{"name":"ticketId","type":"uint256","indexed":false,"internalType":"uint256"},{"name":"tier","type":"uint8","indexed":false,"internalType":"enum MusicOfTheSpheres.TicketTier"},{"name":"eventDate","type":"uint256","indexed":false,"internalType":"uint256"}],"anonymous":false},{"type":"event","name":"Transfer","inputs":[{"name":"from","type":"address","indexed":true,"internalType":"address"},{"name":"to","type":"address","indexed":true,"internalType":"address"},{"name":"tokenId","type":"uint256","indexed":true,"internalType":"uint256"}],"anonymous":false}],"bytecode":{"object":"0x60806040523480156200001157600080fd5b50604051806040016040528060118152602001704d757369634f665468655370686572657360781b815250604051806040016040528060038152602001624d545360e81b815250816000908162000069919062000198565b50600162000078828262000198565b505050620000956200008f6200009b60201b60201c565b6200009f565b62000264565b3390565b600680546001600160a01b038381166001600160a01b0319831681179093556040519116919082907f8be0079c531659141344cd1fd0a4f28419497f9722a3daafe3b4186f6b6457e090600090a35050565b634e487b7160e01b600052604160045260246000fd5b600181811c908216806200011c57607f821691505b6020821081036200013d57634e487b7160e01b600052602260045260246000fd5b50919050565b601f82111562000193576000816000526020600020601f850160051c810160208610156200016e5750805b601f850160051c820191505b818110156200018f578281556001016200017a565b5050505b505050565b81516001600160401b03811115620001b457620001b4620000f1565b620001cc81620001c5845462000107565b8462000143565b602080601f831160018114620002045760008415620001eb5750858301515b600019600386901b1c1916600185901b1785556200018f565b600085815260208120601f198616915b82811015620002355788860151825594840194600190910190840162000214565b5085821015620002545787850151600019600388901b60f8161c191681555b5050505050600190811b01905550565b6118b980620002746000396000f3fe608060405234801561001057600080fd5b50600436106101375760003560e01c80636352211e116100b857806395d89b411161007c57806395d89b41146102cb578063a22cb465146102d3578063b88d4fde146102e6578063c87b56dd146102f9578063e985e9c51461030c578063f2fde38b1461034857600080fd5b80636352211e14610279578063637745231461028c57806370a082311461029f578063715018a6146102b25780638da5cb5b146102ba57600080fd5b806324c14160116100ff57806324c14160146101cc5780633b01ac18146101ed57806342842e0e1461022657806350b44712146102395780635c7b022f1461026657600080fd5b806301ffc9a71461013c57806306fdde0314610164578063081812fc14610179578063095ea7b3146101a457806323b872dd146101b9575b600080fd5b61014f61014a366004611379565b61035b565b60405190151581526020015b60405180910390f35b61016c6103ad565b60405161015b91906113e6565b61018c6101873660046113f9565b61043f565b6040516001600160a01b03909116815260200161015b565b6101b76101b236600461142e565b610466565b005b6101b76101c7366004611458565b610580565b6101df6101da3660046113f9565b6105b1565b60405161015b9291906114cc565b6102186101fb3660046114e7565b600960209081526000928352604080842090915290825290205481565b60405190815260200161015b565b6101b7610234366004611458565b610616565b6101df6102473660046113f9565b6008602052600090815260409020805460019091015460ff9091169082565b6102186102743660046114e7565b610631565b61018c6102873660046113f9565b610684565b6101b761029a3660046114e7565b6106e4565b6102186102ad366004611522565b6108c0565b6101b7610946565b6006546001600160a01b031661018c565b61016c61095a565b6101b76102e136600461153d565b610969565b6101b76102f4366004611584565b610978565b61016c6103073660046113f9565b6109b0565b61014f61031a366004611660565b6001600160a01b03918216600090815260056020908152604080832093909416825291909152205460ff1690565b6101b7610356366004611522565b610a49565b60006001600160e01b031982166380ac58cd60e01b148061038c57506001600160e01b03198216635b5e139f60e01b145b806103a757506301ffc9a760e01b6001600160e01b03198316145b92915050565b6060600080546103bc90611693565b80601f01602080910402602001604051908101604052809291908181526020018280546103e890611693565b80156104355780601f1061040a57610100808354040283529160200191610435565b820191906000526020600020905b81548152906001019060200180831161041857829003601f168201915b5050505050905090565b600061044a82610ac2565b506000908152600460205260409020546001600160a01b031690565b600061047182610684565b9050806001600160a01b0316836001600160a01b0316036104e35760405162461bcd60e51b815260206004820152602160248201527f4552433732313a20617070726f76616c20746f2063757272656e74206f776e656044820152603960f91b60648201526084015b60405180910390fd5b336001600160a01b03821614806104ff57506104ff813361031a565b6105715760405162461bcd60e51b815260206004820152603d60248201527f4552433732313a20617070726f76652063616c6c6572206973206e6f7420746f60448201527f6b656e206f776e6572206f7220617070726f76656420666f7220616c6c00000060648201526084016104da565b61057b8383610b21565b505050565b61058a3382610b8f565b6105a65760405162461bcd60e51b81526004016104da906116cd565b61057b838383610c0e565b60008181526008602052604080822081518083019092528054839283929091829060ff1660028111156105e6576105e6611494565b60028111156105f7576105f7611494565b8152600191909101546020918201528151910151909590945092505050565b61057b83838360405180602001604052806000815250610978565b6001600160a01b03821660009081526009602052604081208183600281111561065c5761065c611494565b600281111561066d5761066d611494565b815260200190815260200160002054905092915050565b6000818152600260205260408120546001600160a01b0316806103a75760405162461bcd60e51b8152602060048201526018602482015277115490cdcc8c4e881a5b9d985b1a59081d1bdad95b88125160421b60448201526064016104da565b6106ec610d72565b6001600160a01b038216600090815260096020526040812060019183600281111561071957610719611494565b600281111561072a5761072a611494565b815260200190815260200160002054106107905760405162461bcd60e51b815260206004820152602160248201527f5469636b6574206f662074686973207469657220616c7265616479206f776e656044820152601960fa1b60648201526084016104da565b600061079b60075490565b90506107ab600780546001019055565b6107b58382610dcc565b60405180604001604052808360028111156107d2576107d2611494565b81526366c0e520602091820152600083815260089091526040902081518154829060ff1916600183600281111561080b5761080b611494565b02179055506020918201516001909101556001600160a01b03841660009081526009909152604081209083600281111561084757610847611494565b600281111561085857610858611494565b815260200190815260200160002060008154809291906108779061171a565b91905055507fc65f81e324bf3518911c7e71865ddb3f910bbb5e935953c86b8eef68e3132e1181836366c0e5206040516108b393929190611741565b60405180910390a1505050565b60006001600160a01b03821661092a5760405162461bcd60e51b815260206004820152602960248201527f4552433732313a2061646472657373207a65726f206973206e6f7420612076616044820152683634b21037bbb732b960b91b60648201526084016104da565b506001600160a01b031660009081526003602052604090205490565b61094e610d72565b6109586000610de6565b565b6060600180546103bc90611693565b610974338383610e38565b5050565b6109823383610b8f565b61099e5760405162461bcd60e51b81526004016104da906116cd565b6109aa84848484610f06565b50505050565b60606109bb82610ac2565b60006109f760408051808201909152601781527f68747470733a2f2f6c6f63616c686f73743a333030302f000000000000000000602082015290565b90506000815111610a175760405180602001604052806000815250610a42565b80610a2184610f39565b604051602001610a32929190611763565b6040516020818303038152906040525b9392505050565b610a51610d72565b6001600160a01b038116610ab65760405162461bcd60e51b815260206004820152602660248201527f4f776e61626c653a206e6577206f776e657220697320746865207a65726f206160448201526564647265737360d01b60648201526084016104da565b610abf81610de6565b50565b6000818152600260205260409020546001600160a01b0316610abf5760405162461bcd60e51b8152602060048201526018602482015277115490cdcc8c4e881a5b9d985b1a59081d1bdad95b88125160421b60448201526064016104da565b600081815260046020526040902080546001600160a01b0319166001600160a01b0384169081179091558190610b5682610684565b6001600160a01b03167f8c5be1e5ebec7d5bd14f71427d1e84f3dd0314c0f7b2291e5b200ac8c7c3b92560405160405180910390a45050565b600080610b9b83610684565b9050806001600160a01b0316846001600160a01b03161480610be257506001600160a01b0380821660009081526005602090815260408083209388168352929052205460ff165b80610c065750836001600160a01b0316610bfb8461043f565b6001600160a01b0316145b949350505050565b826001600160a01b0316610c2182610684565b6001600160a01b031614610c475760405162461bcd60e51b81526004016104da90611792565b6001600160a01b038216610ca95760405162461bcd60e51b8152602060048201526024808201527f4552433732313a207472616e7366657220746f20746865207a65726f206164646044820152637265737360e01b60648201526084016104da565b826001600160a01b0316610cbc82610684565b6001600160a01b031614610ce25760405162461bcd60e51b81526004016104da90611792565b600081815260046020908152604080832080546001600160a01b03199081169091556001600160a01b0387811680865260038552838620805460001901905590871680865283862080546001019055868652600290945282852080549092168417909155905184937fddf252ad1be2c89b69c2b068fc378daa952ba7f163c4a11628f55a4df523b3ef91a4505050565b6006546001600160a01b031633146109585760405162461bcd60e51b815260206004820181905260248201527f4f776e61626c653a2063616c6c6572206973206e6f7420746865206f776e657260448201526064016104da565b610974828260405180602001604052806000815250610fcc565b600680546001600160a01b038381166001600160a01b0319831681179093556040519116919082907f8be0079c531659141344cd1fd0a4f28419497f9722a3daafe3b4186f6b6457e090600090a35050565b816001600160a01b0316836001600160a01b031603610e995760405162461bcd60e51b815260206004820152601960248201527f4552433732313a20617070726f766520746f2063616c6c65720000000000000060448201526064016104da565b6001600160a01b03838116600081815260056020908152604080832094871680845294825291829020805460ff191686151590811790915591519182527f17307eab39ab6107e8899845ad3d59bd9653f200f220920489ca2b5937696c31910160405180910390a3505050565b610f11848484610c0e565b610f1d84848484610fff565b6109aa5760405162461bcd60e51b81526004016104da906117d7565b60606000610f4683611100565b600101905060008167ffffffffffffffff811115610f6657610f6661156e565b6040519080825280601f01601f191660200182016040528015610f90576020820181803683370190505b5090508181016020015b600019016f181899199a1a9b1b9c1cb0b131b232b360811b600a86061a8153600a8504945084610f9a57509392505050565b610fd683836111d8565b610fe36000848484610fff565b61057b5760405162461bcd60e51b81526004016104da906117d7565b60006001600160a01b0384163b156110f557604051630a85bd0160e11b81526001600160a01b0385169063150b7a0290611043903390899088908890600401611829565b6020604051808303816000875af192505050801561107e575060408051601f3d908101601f1916820190925261107b91810190611866565b60015b6110db573d8080156110ac576040519150601f19603f3d011682016040523d82523d6000602084013e6110b1565b606091505b5080516000036110d35760405162461bcd60e51b81526004016104da906117d7565b805181602001fd5b6001600160e01b031916630a85bd0160e11b149050610c06565b506001949350505050565b60008072184f03e93ff9f4daa797ed6e38ed64bf6a1f0160401b831061113f5772184f03e93ff9f4daa797ed6e38ed64bf6a1f0160401b830492506040015b6d04ee2d6d415b85acef8100000000831061116b576d04ee2d6d415b85acef8100000000830492506020015b662386f26fc10000831061118957662386f26fc10000830492506010015b6305f5e10083106111a1576305f5e100830492506008015b61271083106111b557612710830492506004015b606483106111c7576064830492506002015b600a83106103a75760010192915050565b6001600160a01b03821661122e5760405162461bcd60e51b815260206004820181905260248201527f4552433732313a206d696e7420746f20746865207a65726f206164647265737360448201526064016104da565b6000818152600260205260409020546001600160a01b0316156112935760405162461bcd60e51b815260206004820152601c60248201527f4552433732313a20746f6b656e20616c7265616479206d696e7465640000000060448201526064016104da565b6000818152600260205260409020546001600160a01b0316156112f85760405162461bcd60e51b815260206004820152601c60248201527f4552433732313a20746f6b656e20616c7265616479206d696e7465640000000060448201526064016104da565b6001600160a01b038216600081815260036020908152604080832080546001019055848352600290915280822080546001600160a01b0319168417905551839291907fddf252ad1be2c89b69c2b068fc378daa952ba7f163c4a11628f55a4df523b3ef908290a45050565b6001600160e01b031981168114610abf57600080fd5b60006020828403121561138b57600080fd5b8135610a4281611363565b60005b838110156113b1578181015183820152602001611399565b50506000910152565b600081518084526113d2816020860160208601611396565b601f01601f19169290920160200192915050565b602081526000610a4260208301846113ba565b60006020828403121561140b57600080fd5b5035919050565b80356001600160a01b038116811461142957600080fd5b919050565b6000806040838503121561144157600080fd5b61144a83611412565b946020939093013593505050565b60008060006060848603121561146d57600080fd5b61147684611412565b925061148460208501611412565b9150604084013590509250925092565b634e487b7160e01b600052602160045260246000fd5b600381106114c857634e487b7160e01b600052602160045260246000fd5b9052565b604081016114da82856114aa565b8260208301529392505050565b600080604083850312156114fa57600080fd5b61150383611412565b915060208301356003811061151757600080fd5b809150509250929050565b60006020828403121561153457600080fd5b610a4282611412565b6000806040838503121561155057600080fd5b61155983611412565b91506020830135801515811461151757600080fd5b634e487b7160e01b600052604160045260246000fd5b6000806000806080858703121561159a57600080fd5b6115a385611412565b93506115b160208601611412565b925060408501359150606085013567ffffffffffffffff808211156115d557600080fd5b818701915087601f8301126115e957600080fd5b8135818111156115fb576115fb61156e565b604051601f8201601f19908116603f011681019083821181831017156116235761162361156e565b816040528281528a602084870101111561163c57600080fd5b82602086016020830137600060208483010152809550505050505092959194509250565b6000806040838503121561167357600080fd5b61167c83611412565b915061168a60208401611412565b90509250929050565b600181811c908216806116a757607f821691505b6020821081036116c757634e487b7160e01b600052602260045260246000fd5b50919050565b6020808252602d908201527f4552433732313a2063616c6c6572206973206e6f7420746f6b656e206f776e6560408201526c1c881bdc88185c1c1c9bdd9959609a1b606082015260800190565b60006001820161173a57634e487b7160e01b600052601160045260246000fd5b5060010190565b8381526060810161175560208301856114aa565b826040830152949350505050565b60008351611775818460208801611396565b835190830190611789818360208801611396565b01949350505050565b60208082526025908201527f4552433732313a207472616e736665722066726f6d20696e636f72726563742060408201526437bbb732b960d91b606082015260800190565b60208082526032908201527f4552433732313a207472616e7366657220746f206e6f6e20455243373231526560408201527131b2b4bb32b91034b6b83632b6b2b73a32b960711b606082015260800190565b6001600160a01b038581168252841660208201526040810183905260806060820181905260009061185c908301846113ba565b9695505050505050565b60006020828403121561187857600080fd5b8151610a428161136356fea26469706673582212206df509a10ca5caba11d0265cc346d7db4b106b25c2eb244391df49672448d5dc64736f6c63430008180033","linkReferences":{}},"methodIdentifiers":{"approve(address,uint256)":"095ea7b3","balanceOf(address)":"70a08231","getApproved(uint256)":"081812fc","getTicketDetails(uint256)":"24c14160","getTierMintCount(address,uint8)":"5c7b022f","isApprovedForAll(address,address)":"e985e9c5","mintTicket(address,uint8)":"63774523","name()":"06fdde03","owner()":"8da5cb5b","ownerOf(uint256)":"6352211e","renounceOwnership()":"715018a6","safeTransferFrom(address,address,uint256)":"42842e0e","safeTransferFrom(address,address,uint256,bytes)":"b88d4fde","setApprovalForAll(address,bool)":"a22cb465","supportsInterface(bytes4)":"01ffc9a7","symbol()":"95d89b41","ticketTierMintCount(address,uint8)":"3b01ac18","tickets(uint256)":"50b44712","tokenURI(uint256)":"c87b56dd","transferFrom(address,address,uint256)":"23b872dd","transferOwnership(address)":"f2fde38b"},"id":36}